{
  "_format": "hh-sol-artifact-1",
  "contractName": "Ticket",
  "sourceName": "contracts/marketplace/ticket.sol",
  "abi": [
    {
      "inputs": [
        {
          "internalType": "uint256",
          "name": "_tokenId",
          "type": "uint256"
        },
        {
          "internalType": "uint256",
          "name": "_price",
          "type": "uint256"
        },
        {
          "internalType": "uint256",
          "name": "_initialStock",
          "type": "uint256"
        },
        {
          "internalType": "address",
          "name": "_royaltyReceiver",
          "type": "address"
        },
        {
          "internalType": "uint256",
          "name": "_royaltyPercentage",
          "type": "uint256"
        },
        {
          "internalType": "address[]",
          "name": "_payees",
          "type": "address[]"
        },
        {
          "internalType": "uint256[]",
          "name": "_shares",
          "type": "uint256[]"
        },
        {
          "internalType": "string",
          "name": "_uri",
          "type": "string"
        }
      ],
      "stateMutability": "nonpayable",
      "type": "constructor"
    },
    {
      "anonymous": false,
      "inputs": [
        {
          "indexed": true,
          "internalType": "address",
          "name": "account",
          "type": "address"
        },
        {
          "indexed": true,
          "internalType": "address",
          "name": "operator",
          "type": "address"
        },
        {
          "indexed": false,
          "internalType": "bool",
          "name": "approved",
          "type": "bool"
        }
      ],
      "name": "ApprovalForAll",
      "type": "event"
    },
    {
      "anonymous": false,
      "inputs": [
        {
          "indexed": true,
          "internalType": "contract IERC20",
          "name": "token",
          "type": "address"
        },
        {
          "indexed": false,
          "internalType": "address",
          "name": "to",
          "type": "address"
        },
        {
          "indexed": false,
          "internalType": "uint256",
          "name": "amount",
          "type": "uint256"
        }
      ],
      "name": "ERC20PaymentReleased",
      "type": "event"
    },
    {
      "anonymous": false,
      "inputs": [
        {
          "indexed": true,
          "internalType": "uint256",
          "name": "id",
          "type": "uint256"
        },
        {
          "indexed": false,
          "internalType": "uint256",
          "name": "qty",
          "type": "uint256"
        }
      ],
      "name": "Mint",
      "type": "event"
    },
    {
      "anonymous": false,
      "inputs": [
        {
          "indexed": false,
          "internalType": "address",
          "name": "account",
          "type": "address"
        },
        {
          "indexed": false,
          "internalType": "uint256",
          "name": "shares",
          "type": "uint256"
        }
      ],
      "name": "PayeeAdded",
      "type": "event"
    },
    {
      "anonymous": false,
      "inputs": [
        {
          "indexed": false,
          "internalType": "address",
          "name": "from",
          "type": "address"
        },
        {
          "indexed": false,
          "internalType": "uint256",
          "name": "amount",
          "type": "uint256"
        }
      ],
      "name": "PaymentReceived",
      "type": "event"
    },
    {
      "anonymous": false,
      "inputs": [
        {
          "indexed": false,
          "internalType": "address",
          "name": "to",
          "type": "address"
        },
        {
          "indexed": false,
          "internalType": "uint256",
          "name": "amount",
          "type": "uint256"
        }
      ],
      "name": "PaymentReleased",
      "type": "event"
    },
    {
      "anonymous": false,
      "inputs": [
        {
          "indexed": true,
          "internalType": "bytes32",
          "name": "role",
          "type": "bytes32"
        },
        {
          "indexed": true,
          "internalType": "bytes32",
          "name": "previousAdminRole",
          "type": "bytes32"
        },
        {
          "indexed": true,
          "internalType": "bytes32",
          "name": "newAdminRole",
          "type": "bytes32"
        }
      ],
      "name": "RoleAdminChanged",
      "type": "event"
    },
    {
      "anonymous": false,
      "inputs": [
        {
          "indexed": true,
          "internalType": "bytes32",
          "name": "role",
          "type": "bytes32"
        },
        {
          "indexed": true,
          "internalType": "address",
          "name": "account",
          "type": "address"
        },
        {
          "indexed": true,
          "internalType": "address",
          "name": "sender",
          "type": "address"
        }
      ],
      "name": "RoleGranted",
      "type": "event"
    },
    {
      "anonymous": false,
      "inputs": [
        {
          "indexed": true,
          "internalType": "bytes32",
          "name": "role",
          "type": "bytes32"
        },
        {
          "indexed": true,
          "internalType": "address",
          "name": "account",
          "type": "address"
        },
        {
          "indexed": true,
          "internalType": "address",
          "name": "sender",
          "type": "address"
        }
      ],
      "name": "RoleRevoked",
      "type": "event"
    },
    {
      "anonymous": false,
      "inputs": [
        {
          "indexed": false,
          "internalType": "string",
          "name": "newuri",
          "type": "string"
        }
      ],
      "name": "SetUri",
      "type": "event"
    },
    {
      "anonymous": false,
      "inputs": [],
      "name": "Start",
      "type": "event"
    },
    {
      "anonymous": false,
      "inputs": [],
      "name": "Stop",
      "type": "event"
    },
    {
      "anonymous": false,
      "inputs": [
        {
          "indexed": true,
          "internalType": "address",
          "name": "operator",
          "type": "address"
        },
        {
          "indexed": true,
          "internalType": "address",
          "name": "from",
          "type": "address"
        },
        {
          "indexed": true,
          "internalType": "address",
          "name": "to",
          "type": "address"
        },
        {
          "indexed": false,
          "internalType": "uint256[]",
          "name": "ids",
          "type": "uint256[]"
        },
        {
          "indexed": false,
          "internalType": "uint256[]",
          "name": "values",
          "type": "uint256[]"
        }
      ],
      "name": "TransferBatch",
      "type": "event"
    },
    {
      "anonymous": false,
      "inputs": [
        {
          "indexed": true,
          "internalType": "address",
          "name": "operator",
          "type": "address"
        },
        {
          "indexed": true,
          "internalType": "address",
          "name": "from",
          "type": "address"
        },
        {
          "indexed": true,
          "internalType": "address",
          "name": "to",
          "type": "address"
        },
        {
          "indexed": false,
          "internalType": "uint256",
          "name": "id",
          "type": "uint256"
        },
        {
          "indexed": false,
          "internalType": "uint256",
          "name": "value",
          "type": "uint256"
        }
      ],
      "name": "TransferSingle",
      "type": "event"
    },
    {
      "anonymous": false,
      "inputs": [
        {
          "indexed": false,
          "internalType": "string",
          "name": "value",
          "type": "string"
        },
        {
          "indexed": true,
          "internalType": "uint256",
          "name": "id",
          "type": "uint256"
        }
      ],
      "name": "URI",
      "type": "event"
    },
    {
      "inputs": [],
      "name": "BOOTH_ROLE",
      "outputs": [
        {
          "internalType": "bytes32",
          "name": "",
          "type": "bytes32"
        }
      ],
      "stateMutability": "view",
      "type": "function"
    },
    {
      "inputs": [],
      "name": "DEFAULT_ADMIN_ROLE",
      "outputs": [
        {
          "internalType": "bytes32",
          "name": "",
          "type": "bytes32"
        }
      ],
      "stateMutability": "view",
      "type": "function"
    },
    {
      "inputs": [
        {
          "internalType": "address",
          "name": "account",
          "type": "address"
        },
        {
          "internalType": "uint256",
          "name": "id",
          "type": "uint256"
        }
      ],
      "name": "balanceOf",
      "outputs": [
        {
          "internalType": "uint256",
          "name": "",
          "type": "uint256"
        }
      ],
      "stateMutability": "view",
      "type": "function"
    },
    {
      "inputs": [
        {
          "internalType": "address[]",
          "name": "accounts",
          "type": "address[]"
        },
        {
          "internalType": "uint256[]",
          "name": "ids",
          "type": "uint256[]"
        }
      ],
      "name": "balanceOfBatch",
      "outputs": [
        {
          "internalType": "uint256[]",
          "name": "",
          "type": "uint256[]"
        }
      ],
      "stateMutability": "view",
      "type": "function"
    },
    {
      "inputs": [
        {
          "internalType": "uint256",
          "name": "id",
          "type": "uint256"
        }
      ],
      "name": "exists",
      "outputs": [
        {
          "internalType": "bool",
          "name": "",
          "type": "bool"
        }
      ],
      "stateMutability": "view",
      "type": "function"
    },
    {
      "inputs": [
        {
          "internalType": "uint256",
          "name": "ticketId",
          "type": "uint256"
        },
        {
          "internalType": "address",
          "name": "usr",
          "type": "address"
        }
      ],
      "name": "getNftId",
      "outputs": [
        {
          "internalType": "uint256",
          "name": "",
          "type": "uint256"
        }
      ],
      "stateMutability": "view",
      "type": "function"
    },
    {
      "inputs": [
        {
          "internalType": "bytes32",
          "name": "role",
          "type": "bytes32"
        }
      ],
      "name": "getRoleAdmin",
      "outputs": [
        {
          "internalType": "bytes32",
          "name": "",
          "type": "bytes32"
        }
      ],
      "stateMutability": "view",
      "type": "function"
    },
    {
      "inputs": [
        {
          "internalType": "uint256",
          "name": "_tokenId",
          "type": "uint256"
        }
      ],
      "name": "getStock",
      "outputs": [
        {
          "internalType": "int256",
          "name": "",
          "type": "int256"
        }
      ],
      "stateMutability": "view",
      "type": "function"
    },
    {
      "inputs": [
        {
          "internalType": "bytes32",
          "name": "role",
          "type": "bytes32"
        },
        {
          "internalType": "address",
          "name": "account",
          "type": "address"
        }
      ],
      "name": "grantRole",
      "outputs": [],
      "stateMutability": "nonpayable",
      "type": "function"
    },
    {
      "inputs": [
        {
          "internalType": "uint256",
          "name": "ticketId",
          "type": "uint256"
        },
        {
          "internalType": "address",
          "name": "usr",
          "type": "address"
        }
      ],
      "name": "hasAccess",
      "outputs": [
        {
          "internalType": "bool",
          "name": "",
          "type": "bool"
        }
      ],
      "stateMutability": "view",
      "type": "function"
    },
    {
      "inputs": [
        {
          "internalType": "bytes32",
          "name": "role",
          "type": "bytes32"
        },
        {
          "internalType": "address",
          "name": "account",
          "type": "address"
        }
      ],
      "name": "hasRole",
      "outputs": [
        {
          "internalType": "bool",
          "name": "",
          "type": "bool"
        }
      ],
      "stateMutability": "view",
      "type": "function"
    },
    {
      "inputs": [
        {
          "internalType": "address",
          "name": "account",
          "type": "address"
        },
        {
          "internalType": "address",
          "name": "operator",
          "type": "address"
        }
      ],
      "name": "isApprovedForAll",
      "outputs": [
        {
          "internalType": "bool",
          "name": "",
          "type": "bool"
        }
      ],
      "stateMutability": "view",
      "type": "function"
    },
    {
      "inputs": [
        {
          "internalType": "uint256",
          "name": "_tokenId",
          "type": "uint256"
        },
        {
          "internalType": "uint256",
          "name": "_nftId",
          "type": "uint256"
        },
        {
          "internalType": "uint256",
          "name": "_qty",
          "type": "uint256"
        },
        {
          "internalType": "address",
          "name": "_guy",
          "type": "address"
        }
      ],
      "name": "mint",
      "outputs": [],
      "stateMutability": "payable",
      "type": "function"
    },
    {
      "inputs": [
        {
          "internalType": "address",
          "name": "to",
          "type": "address"
        },
        {
          "internalType": "uint256[]",
          "name": "ids",
          "type": "uint256[]"
        },
        {
          "internalType": "uint256[]",
          "name": "amounts",
          "type": "uint256[]"
        },
        {
          "internalType": "bytes",
          "name": "data",
          "type": "bytes"
        }
      ],
      "name": "mintBatch",
      "outputs": [],
      "stateMutability": "nonpayable",
      "type": "function"
    },
    {
      "inputs": [
        {
          "internalType": "uint256",
          "name": "index",
          "type": "uint256"
        }
      ],
      "name": "payee",
      "outputs": [
        {
          "internalType": "address",
          "name": "",
          "type": "address"
        }
      ],
      "stateMutability": "view",
      "type": "function"
    },
    {
      "inputs": [],
      "name": "price",
      "outputs": [
        {
          "internalType": "uint256",
          "name": "",
          "type": "uint256"
        }
      ],
      "stateMutability": "view",
      "type": "function"
    },
    {
      "inputs": [
        {
          "internalType": "address",
          "name": "account",
          "type": "address"
        }
      ],
      "name": "releasable",
      "outputs": [
        {
          "internalType": "uint256",
          "name": "",
          "type": "uint256"
        }
      ],
      "stateMutability": "view",
      "type": "function"
    },
    {
      "inputs": [
        {
          "internalType": "contract IERC20",
          "name": "token",
          "type": "address"
        },
        {
          "internalType": "address",
          "name": "account",
          "type": "address"
        }
      ],
      "name": "releasable",
      "outputs": [
        {
          "internalType": "uint256",
          "name": "",
          "type": "uint256"
        }
      ],
      "stateMutability": "view",
      "type": "function"
    },
    {
      "inputs": [
        {
          "internalType": "address payable",
          "name": "account",
          "type": "address"
        }
      ],
      "name": "release",
      "outputs": [],
      "stateMutability": "nonpayable",
      "type": "function"
    },
    {
      "inputs": [
        {
          "internalType": "contract IERC20",
          "name": "token",
          "type": "address"
        },
        {
          "internalType": "address",
          "name": "account",
          "type": "address"
        }
      ],
      "name": "release",
      "outputs": [],
      "stateMutability": "nonpayable",
      "type": "function"
    },
    {
      "inputs": [
        {
          "internalType": "contract IERC20",
          "name": "token",
          "type": "address"
        },
        {
          "internalType": "address",
          "name": "account",
          "type": "address"
        }
      ],
      "name": "released",
      "outputs": [
        {
          "internalType": "uint256",
          "name": "",
          "type": "uint256"
        }
      ],
      "stateMutability": "view",
      "type": "function"
    },
    {
      "inputs": [
        {
          "internalType": "address",
          "name": "account",
          "type": "address"
        }
      ],
      "name": "released",
      "outputs": [
        {
          "internalType": "uint256",
          "name": "",
          "type": "uint256"
        }
      ],
      "stateMutability": "view",
      "type": "function"
    },
    {
      "inputs": [
        {
          "internalType": "bytes32",
          "name": "role",
          "type": "bytes32"
        },
        {
          "internalType": "address",
          "name": "account",
          "type": "address"
        }
      ],
      "name": "renounceRole",
      "outputs": [],
      "stateMutability": "nonpayable",
      "type": "function"
    },
    {
      "inputs": [
        {
          "internalType": "bytes32",
          "name": "role",
          "type": "bytes32"
        },
        {
          "internalType": "address",
          "name": "account",
          "type": "address"
        }
      ],
      "name": "revokeRole",
      "outputs": [],
      "stateMutability": "nonpayable",
      "type": "function"
    },
    {
      "inputs": [
        {
          "internalType": "uint256",
          "name": "_tokenId",
          "type": "uint256"
        },
        {
          "internalType": "uint256",
          "name": "_salePrice",
          "type": "uint256"
        }
      ],
      "name": "royaltyInfo",
      "outputs": [
        {
          "internalType": "address",
          "name": "receiver",
          "type": "address"
        },
        {
          "internalType": "uint256",
          "name": "royaltyAmount",
          "type": "uint256"
        }
      ],
      "stateMutability": "view",
      "type": "function"
    },
    {
      "inputs": [],
      "name": "royaltyPercentage",
      "outputs": [
        {
          "internalType": "uint256",
          "name": "",
          "type": "uint256"
        }
      ],
      "stateMutability": "view",
      "type": "function"
    },
    {
      "inputs": [],
      "name": "royaltyReceiver",
      "outputs": [
        {
          "internalType": "address",
          "name": "",
          "type": "address"
        }
      ],
      "stateMutability": "view",
      "type": "function"
    },
    {
      "inputs": [
        {
          "internalType": "address",
          "name": "from",
          "type": "address"
        },
        {
          "internalType": "address",
          "name": "to",
          "type": "address"
        },
        {
          "internalType": "uint256[]",
          "name": "ids",
          "type": "uint256[]"
        },
        {
          "internalType": "uint256[]",
          "name": "amounts",
          "type": "uint256[]"
        },
        {
          "internalType": "bytes",
          "name": "data",
          "type": "bytes"
        }
      ],
      "name": "safeBatchTransferFrom",
      "outputs": [],
      "stateMutability": "nonpayable",
      "type": "function"
    },
    {
      "inputs": [
        {
          "internalType": "address",
          "name": "from",
          "type": "address"
        },
        {
          "internalType": "address",
          "name": "to",
          "type": "address"
        },
        {
          "internalType": "uint256",
          "name": "id",
          "type": "uint256"
        },
        {
          "internalType": "uint256",
          "name": "amount",
          "type": "uint256"
        },
        {
          "internalType": "bytes",
          "name": "data",
          "type": "bytes"
        }
      ],
      "name": "safeTransferFrom",
      "outputs": [],
      "stateMutability": "nonpayable",
      "type": "function"
    },
    {
      "inputs": [
        {
          "internalType": "address",
          "name": "operator",
          "type": "address"
        },
        {
          "internalType": "bool",
          "name": "approved",
          "type": "bool"
        }
      ],
      "name": "setApprovalForAll",
      "outputs": [],
      "stateMutability": "nonpayable",
      "type": "function"
    },
    {
      "inputs": [
        {
          "internalType": "uint256",
          "name": "_tokenId",
          "type": "uint256"
        },
        {
          "internalType": "uint256",
          "name": "_stock",
          "type": "uint256"
        }
      ],
      "name": "setStock",
      "outputs": [],
      "stateMutability": "nonpayable",
      "type": "function"
    },
    {
      "inputs": [
        {
          "internalType": "string",
          "name": "newuri",
          "type": "string"
        }
      ],
      "name": "setURI",
      "outputs": [],
      "stateMutability": "nonpayable",
      "type": "function"
    },
    {
      "inputs": [
        {
          "internalType": "address",
          "name": "account",
          "type": "address"
        }
      ],
      "name": "shares",
      "outputs": [
        {
          "internalType": "uint256",
          "name": "",
          "type": "uint256"
        }
      ],
      "stateMutability": "view",
      "type": "function"
    },
    {
      "inputs": [
        {
          "internalType": "uint256",
          "name": "",
          "type": "uint256"
        }
      ],
      "name": "stock",
      "outputs": [
        {
          "internalType": "uint256",
          "name": "",
          "type": "uint256"
        }
      ],
      "stateMutability": "view",
      "type": "function"
    },
    {
      "inputs": [
        {
          "internalType": "bytes4",
          "name": "interfaceId",
          "type": "bytes4"
        }
      ],
      "name": "supportsInterface",
      "outputs": [
        {
          "internalType": "bool",
          "name": "",
          "type": "bool"
        }
      ],
      "stateMutability": "view",
      "type": "function"
    },
    {
      "inputs": [],
      "name": "tokenId",
      "outputs": [
        {
          "internalType": "uint256",
          "name": "",
          "type": "uint256"
        }
      ],
      "stateMutability": "view",
      "type": "function"
    },
    {
      "inputs": [
        {
          "internalType": "contract IERC20",
          "name": "token",
          "type": "address"
        }
      ],
      "name": "totalReleased",
      "outputs": [
        {
          "internalType": "uint256",
          "name": "",
          "type": "uint256"
        }
      ],
      "stateMutability": "view",
      "type": "function"
    },
    {
      "inputs": [],
      "name": "totalReleased",
      "outputs": [
        {
          "internalType": "uint256",
          "name": "",
          "type": "uint256"
        }
      ],
      "stateMutability": "view",
      "type": "function"
    },
    {
      "inputs": [],
      "name": "totalShares",
      "outputs": [
        {
          "internalType": "uint256",
          "name": "",
          "type": "uint256"
        }
      ],
      "stateMutability": "view",
      "type": "function"
    },
    {
      "inputs": [
        {
          "internalType": "uint256",
          "name": "id",
          "type": "uint256"
        }
      ],
      "name": "totalSupply",
      "outputs": [
        {
          "internalType": "uint256",
          "name": "",
          "type": "uint256"
        }
      ],
      "stateMutability": "view",
      "type": "function"
    },
    {
      "inputs": [],
      "name": "unlimitedStock",
      "outputs": [
        {
          "internalType": "bool",
          "name": "",
          "type": "bool"
        }
      ],
      "stateMutability": "view",
      "type": "function"
    },
    {
      "inputs": [
        {
          "internalType": "uint256",
          "name": "newPrice",
          "type": "uint256"
        }
      ],
      "name": "updatePrice",
      "outputs": [],
      "stateMutability": "nonpayable",
      "type": "function"
    },
    {
      "inputs": [
        {
          "internalType": "uint256",
          "name": "_id",
          "type": "uint256"
        }
      ],
      "name": "uri",
      "outputs": [
        {
          "internalType": "string",
          "name": "",
          "type": "string"
        }
      ],
      "stateMutability": "view",
      "type": "function"
    },
    {
      "stateMutability": "payable",
      "type": "receive"
    }
  ],
  "bytecode": "0x60806040523480156200001157600080fd5b5060405162006f4338038062006f43833981810160405281019062000037919062000a9d565b8282826200004b816200024460201b60201c565b50805182511462000093576040517f08c379a00000000000000000000000000000000000000000000000000000000081526004016200008a9062000c4a565b60405180910390fd5b6000825111620000da576040517f08c379a0000000000000000000000000000000000000000000000000000000008152600401620000d19062000cbc565b60405180910390fd5b60005b825181101562000149576200013383828151811062000101576200010062000cde565b5b60200260200101518383815181106200011f576200011e62000cde565b5b60200260200101516200026060201b60201c565b8080620001409062000d3c565b915050620000dd565b50505087600d8190555086600c8190555060008614600f60006101000a81548160ff021916908315150217905550600f60009054906101000a900460ff16620001a75785600e6000600d548152602001908152602001600020819055505b84601160006101000a81548173ffffffffffffffffffffffffffffffffffffffff021916908373ffffffffffffffffffffffffffffffffffffffff16021790555083601281905550620002046000801b336200049a60201b60201c565b620002367f435269160f073040285d1afaa3d9dbd1dbcaa4ff2aa674d3b9d65359d97fa414336200049a60201b60201c565b50505050505050506200103d565b80600290805190602001906200025c929190620005ff565b5050565b600073ffffffffffffffffffffffffffffffffffffffff168273ffffffffffffffffffffffffffffffffffffffff161415620002d3576040517f08c379a0000000000000000000000000000000000000000000000000000000008152600401620002ca9062000e00565b60405180910390fd5b6000811162000319576040517f08c379a0000000000000000000000000000000000000000000000000000000008152600401620003109062000e72565b60405180910390fd5b6000600760008473ffffffffffffffffffffffffffffffffffffffff1673ffffffffffffffffffffffffffffffffffffffff16815260200190815260200160002054146200039e576040517f08c379a0000000000000000000000000000000000000000000000000000000008152600401620003959062000f0a565b60405180910390fd5b6009829080600181540180825580915050600190039060005260206000200160009091909190916101000a81548173ffffffffffffffffffffffffffffffffffffffff021916908373ffffffffffffffffffffffffffffffffffffffff16021790555080600760008473ffffffffffffffffffffffffffffffffffffffff1673ffffffffffffffffffffffffffffffffffffffff168152602001908152602001600020819055508060055462000455919062000f2c565b6005819055507f40c340f65e17194d14ddddb073d3c9f888e3cb52b5aae0c6c7706b4fbc905fac82826040516200048e92919062000fab565b60405180910390a15050565b620004ac82826200058c60201b60201c565b620005885760016003600084815260200190815260200160002060000160008373ffffffffffffffffffffffffffffffffffffffff1673ffffffffffffffffffffffffffffffffffffffff16815260200190815260200160002060006101000a81548160ff0219169083151502179055506200052d620005f760201b60201c565b73ffffffffffffffffffffffffffffffffffffffff168173ffffffffffffffffffffffffffffffffffffffff16837f2f8788117e7eff1d82e926ec794901d17c78024a50270940304540a733656f0d60405160405180910390a45b5050565b60006003600084815260200190815260200160002060000160008373ffffffffffffffffffffffffffffffffffffffff1673ffffffffffffffffffffffffffffffffffffffff16815260200190815260200160002060009054906101000a900460ff16905092915050565b600033905090565b8280546200060d9062001007565b90600052602060002090601f0160209004810192826200063157600085556200067d565b82601f106200064c57805160ff19168380011785556200067d565b828001600101855582156200067d579182015b828111156200067c5782518255916020019190600101906200065f565b5b5090506200068c919062000690565b5090565b5b80821115620006ab57600081600090555060010162000691565b5090565b6000604051905090565b600080fd5b600080fd5b6000819050919050565b620006d881620006c3565b8114620006e457600080fd5b50565b600081519050620006f881620006cd565b92915050565b600073ffffffffffffffffffffffffffffffffffffffff82169050919050565b60006200072b82620006fe565b9050919050565b6200073d816200071e565b81146200074957600080fd5b50565b6000815190506200075d8162000732565b92915050565b600080fd5b6000601f19601f8301169050919050565b7f4e487b7100000000000000000000000000000000000000000000000000000000600052604160045260246000fd5b620007b38262000768565b810181811067ffffffffffffffff82111715620007d557620007d462000779565b5b80604052505050565b6000620007ea620006af565b9050620007f88282620007a8565b919050565b600067ffffffffffffffff8211156200081b576200081a62000779565b5b602082029050602081019050919050565b600080fd5b6000620008486200084284620007fd565b620007de565b905080838252602082019050602084028301858111156200086e576200086d6200082c565b5b835b818110156200089b57806200088688826200074c565b84526020840193505060208101905062000870565b5050509392505050565b600082601f830112620008bd57620008bc62000763565b5b8151620008cf84826020860162000831565b91505092915050565b600067ffffffffffffffff821115620008f657620008f562000779565b5b602082029050602081019050919050565b60006200091e6200091884620008d8565b620007de565b905080838252602082019050602084028301858111156200094457620009436200082c565b5b835b818110156200097157806200095c8882620006e7565b84526020840193505060208101905062000946565b5050509392505050565b600082601f83011262000993576200099262000763565b5b8151620009a584826020860162000907565b91505092915050565b600080fd5b600067ffffffffffffffff821115620009d157620009d062000779565b5b620009dc8262000768565b9050602081019050919050565b60005b8381101562000a09578082015181840152602081019050620009ec565b8381111562000a19576000848401525b50505050565b600062000a3662000a3084620009b3565b620007de565b90508281526020810184848401111562000a555762000a54620009ae565b5b62000a62848285620009e9565b509392505050565b600082601f83011262000a825762000a8162000763565b5b815162000a9484826020860162000a1f565b91505092915050565b600080600080600080600080610100898b03121562000ac15762000ac0620006b9565b5b600062000ad18b828c01620006e7565b985050602062000ae48b828c01620006e7565b975050604062000af78b828c01620006e7565b965050606062000b0a8b828c016200074c565b955050608062000b1d8b828c01620006e7565b94505060a089015167ffffffffffffffff81111562000b415762000b40620006be565b5b62000b4f8b828c01620008a5565b93505060c089015167ffffffffffffffff81111562000b735762000b72620006be565b5b62000b818b828c016200097b565b92505060e089015167ffffffffffffffff81111562000ba55762000ba4620006be565b5b62000bb38b828c0162000a6a565b9150509295985092959890939650565b600082825260208201905092915050565b7f5061796d656e7453706c69747465723a2070617965657320616e64207368617260008201527f6573206c656e677468206d69736d617463680000000000000000000000000000602082015250565b600062000c3260328362000bc3565b915062000c3f8262000bd4565b604082019050919050565b6000602082019050818103600083015262000c658162000c23565b9050919050565b7f5061796d656e7453706c69747465723a206e6f20706179656573000000000000600082015250565b600062000ca4601a8362000bc3565b915062000cb18262000c6c565b602082019050919050565b6000602082019050818103600083015262000cd78162000c95565b9050919050565b7f4e487b7100000000000000000000000000000000000000000000000000000000600052603260045260246000fd5b7f4e487b7100000000000000000000000000000000000000000000000000000000600052601160045260246000fd5b600062000d4982620006c3565b91507fffffffffffffffffffffffffffffffffffffffffffffffffffffffffffffffff82141562000d7f5762000d7e62000d0d565b5b600182019050919050565b7f5061796d656e7453706c69747465723a206163636f756e74206973207468652060008201527f7a65726f20616464726573730000000000000000000000000000000000000000602082015250565b600062000de8602c8362000bc3565b915062000df58262000d8a565b604082019050919050565b6000602082019050818103600083015262000e1b8162000dd9565b9050919050565b7f5061796d656e7453706c69747465723a20736861726573206172652030000000600082015250565b600062000e5a601d8362000bc3565b915062000e678262000e22565b602082019050919050565b6000602082019050818103600083015262000e8d8162000e4b565b9050919050565b7f5061796d656e7453706c69747465723a206163636f756e7420616c726561647960008201527f2068617320736861726573000000000000000000000000000000000000000000602082015250565b600062000ef2602b8362000bc3565b915062000eff8262000e94565b604082019050919050565b6000602082019050818103600083015262000f258162000ee3565b9050919050565b600062000f3982620006c3565b915062000f4683620006c3565b9250827fffffffffffffffffffffffffffffffffffffffffffffffffffffffffffffffff0382111562000f7e5762000f7d62000d0d565b5b828201905092915050565b62000f94816200071e565b82525050565b62000fa581620006c3565b82525050565b600060408201905062000fc2600083018562000f89565b62000fd1602083018462000f9a565b9392505050565b7f4e487b7100000000000000000000000000000000000000000000000000000000600052602260045260246000fd5b600060028204905060018216806200102057607f821691505b6020821081141562001037576200103662000fd8565b5b50919050565b615ef6806200104d6000396000f3fe60806040526004361061025f5760003560e01c806364c84c1a11610144578063a3f8eace116100b6578063d547741f1161007a578063d547741f14610a18578063d79779b214610a41578063e33b7de314610a7e578063e985e9c514610aa9578063eb65559114610ae6578063f242432a14610b0f576102a6565b8063a3f8eace146108e7578063bd85b03914610924578063c45ac05014610961578063ce7c2ac21461099e578063ced14198146109db576102a6565b806391d148541161010857806391d14854146107c35780639852595c146108005780639fbc87131461083d578063a035b1fe14610868578063a217fddf14610893578063a22cb465146108be576102a6565b806364c84c1a146106ca57806383cf1021146106f55780638a71bb2d146107325780638b83209b1461075d5780638d6cc56d1461079a576102a6565b80632f2ff15d116101dd57806340974911116101a157806340974911146105a357806341745247146105ce57806348b750441461060b5780634e1273f4146106345780634f558e7914610671578063643183bf146106ae576102a6565b80632f2ff15d146104ac57806336568abe146104d55780633a98ef39146104fe5780633ab7d09a14610529578063406072a914610566576102a6565b8063191655871161022457806319165587146103b65780631f7fdffa146103df578063248a9ca3146104085780632a55205a146104455780632eb2c2d614610483576102a6565b8062fdd58e146102ab57806301ffc9a7146102e857806302fe5305146103255780630e89341c1461034e57806317d70f7c1461038b576102a6565b366102a6577f6ef95f06320e7a25a04a175ca677b7052bdd97131872c2192525a629f51be77061028d610b38565b3460405161029c929190613c33565b60405180910390a1005b600080fd5b3480156102b757600080fd5b506102d260048036038101906102cd9190613cc8565b610b40565b6040516102df9190613d08565b60405180910390f35b3480156102f457600080fd5b5061030f600480360381019061030a9190613d7b565b610c09565b60405161031c9190613dc3565b60405180910390f35b34801561033157600080fd5b5061034c60048036038101906103479190613f24565b610c1b565b005b34801561035a57600080fd5b5061037560048036038101906103709190613f6d565b610c6c565b6040516103829190614022565b60405180910390f35b34801561039757600080fd5b506103a0610cef565b6040516103ad9190613d08565b60405180910390f35b3480156103c257600080fd5b506103dd60048036038101906103d89190614082565b610cf5565b005b3480156103eb57600080fd5b5061040660048036038101906104019190614218565b610e75565b005b34801561041457600080fd5b5061042f600480360381019061042a9190614309565b610e95565b60405161043c9190614345565b60405180910390f35b34801561045157600080fd5b5061046c60048036038101906104679190614360565b610eb5565b60405161047a929190613c33565b60405180910390f35b34801561048f57600080fd5b506104aa60048036038101906104a591906143a0565b610f01565b005b3480156104b857600080fd5b506104d360048036038101906104ce919061446f565b610fa2565b005b3480156104e157600080fd5b506104fc60048036038101906104f7919061446f565b610fc3565b005b34801561050a57600080fd5b50610513611046565b6040516105209190613d08565b60405180910390f35b34801561053557600080fd5b50610550600480360381019061054b9190613f6d565b611050565b60405161055d91906144c8565b60405180910390f35b34801561057257600080fd5b5061058d60048036038101906105889190614521565b6110be565b60405161059a9190613d08565b60405180910390f35b3480156105af57600080fd5b506105b8611145565b6040516105c59190614345565b60405180910390f35b3480156105da57600080fd5b506105f560048036038101906105f09190614561565b611169565b6040516106029190613d08565b60405180910390f35b34801561061757600080fd5b50610632600480360381019061062d9190614521565b6111e6565b005b34801561064057600080fd5b5061065b60048036038101906106569190614664565b6113fa565b604051610668919061479a565b60405180910390f35b34801561067d57600080fd5b5061069860048036038101906106939190613f6d565b611513565b6040516106a59190613dc3565b60405180910390f35b6106c860048036038101906106c391906147bc565b611527565b005b3480156106d657600080fd5b506106df6116e8565b6040516106ec9190613dc3565b60405180910390f35b34801561070157600080fd5b5061071c60048036038101906107179190613f6d565b6116fb565b6040516107299190613d08565b60405180910390f35b34801561073e57600080fd5b50610747611713565b6040516107549190613d08565b60405180910390f35b34801561076957600080fd5b50610784600480360381019061077f9190613f6d565b611719565b6040516107919190614823565b60405180910390f35b3480156107a657600080fd5b506107c160048036038101906107bc9190613f6d565b611761565b005b3480156107cf57600080fd5b506107ea60048036038101906107e5919061446f565b611779565b6040516107f79190613dc3565b60405180910390f35b34801561080c57600080fd5b506108276004803603810190610822919061483e565b6117e4565b6040516108349190613d08565b60405180910390f35b34801561084957600080fd5b5061085261182d565b60405161085f9190614823565b60405180910390f35b34801561087457600080fd5b5061087d611853565b60405161088a9190613d08565b60405180910390f35b34801561089f57600080fd5b506108a8611859565b6040516108b59190614345565b60405180910390f35b3480156108ca57600080fd5b506108e560048036038101906108e09190614897565b611860565b005b3480156108f357600080fd5b5061090e6004803603810190610909919061483e565b611876565b60405161091b9190613d08565b60405180910390f35b34801561093057600080fd5b5061094b60048036038101906109469190613f6d565b6118a9565b6040516109589190613d08565b60405180910390f35b34801561096d57600080fd5b5061098860048036038101906109839190614521565b6118c6565b6040516109959190613d08565b60405180910390f35b3480156109aa57600080fd5b506109c560048036038101906109c0919061483e565b611984565b6040516109d29190613d08565b60405180910390f35b3480156109e757600080fd5b50610a0260048036038101906109fd9190614561565b6119cd565b604051610a0f9190613dc3565b60405180910390f35b348015610a2457600080fd5b50610a3f6004803603810190610a3a919061446f565b611a39565b005b348015610a4d57600080fd5b50610a686004803603810190610a6391906148d7565b611a5a565b604051610a759190613d08565b60405180910390f35b348015610a8a57600080fd5b50610a93611aa3565b604051610aa09190613d08565b60405180910390f35b348015610ab557600080fd5b50610ad06004803603810190610acb9190614904565b611aad565b604051610add9190613dc3565b60405180910390f35b348015610af257600080fd5b50610b0d6004803603810190610b089190614360565b611b41565b005b348015610b1b57600080fd5b50610b366004803603810190610b319190614944565b611b6b565b005b600033905090565b60008073ffffffffffffffffffffffffffffffffffffffff168373ffffffffffffffffffffffffffffffffffffffff161415610bb1576040517f08c379a0000000000000000000000000000000000000000000000000000000008152600401610ba890614a4d565b60405180910390fd5b60008083815260200190815260200160002060008473ffffffffffffffffffffffffffffffffffffffff1673ffffffffffffffffffffffffffffffffffffffff16815260200190815260200160002054905092915050565b6000610c1482611c0c565b9050919050565b6000801b610c2881611c86565b610c3182611c9a565b7fd70c1392a974224e639e7a9607dcb2c766826aecfe2dc356f442ce0488b01e1f82604051610c609190614022565b60405180910390a15050565b6060610c7782611513565b610cb6576040517f08c379a0000000000000000000000000000000000000000000000000000000008152600401610cad90614ab9565b60405180910390fd5b610cbf82611cb4565b610cc883611d48565b604051602001610cd9929190614b61565b6040516020818303038152906040529050919050565b600d5481565b6000600760008373ffffffffffffffffffffffffffffffffffffffff1673ffffffffffffffffffffffffffffffffffffffff1681526020019081526020016000205411610d77576040517f08c379a0000000000000000000000000000000000000000000000000000000008152600401610d6e90614c02565b60405180910390fd5b6000610d8282611876565b90506000811415610dc8576040517f08c379a0000000000000000000000000000000000000000000000000000000008152600401610dbf90614c94565b60405180910390fd5b8060066000828254610dda9190614ce3565b9250508190555080600860008473ffffffffffffffffffffffffffffffffffffffff1673ffffffffffffffffffffffffffffffffffffffff16815260200190815260200160002060008282540192505081905550610e388282611e20565b7fdf20fd1e76bc69d672e4814fafb2c449bba3a5369d8359adf9e05e6fde87b0568282604051610e69929190614d98565b60405180910390a15050565b6000801b610e8281611c86565b610e8e85858585611f14565b5050505050565b600060036000838152602001908152602001600020600101549050919050565b600080601160009054906101000a900473ffffffffffffffffffffffffffffffffffffffff16915061271060125484610eee9190614dc1565b610ef89190614e4a565b90509250929050565b610f09610b38565b73ffffffffffffffffffffffffffffffffffffffff168573ffffffffffffffffffffffffffffffffffffffff161480610f4f5750610f4e85610f49610b38565b611aad565b5b610f8e576040517f08c379a0000000000000000000000000000000000000000000000000000000008152600401610f8590614eed565b60405180910390fd5b610f9b8585858585612141565b5050505050565b610fab82610e95565b610fb481611c86565b610fbe8383612463565b505050565b610fcb610b38565b73ffffffffffffffffffffffffffffffffffffffff168173ffffffffffffffffffffffffffffffffffffffff1614611038576040517f08c379a000000000000000000000000000000000000000000000000000000000815260040161102f90614f7f565b60405180910390fd5b6110428282612544565b5050565b6000600554905090565b6000600f60009054906101000a900460ff161561108f577fffffffffffffffffffffffffffffffffffffffffffffffffffffffffffffffff90506110b9565b611098826118a9565b600e6000848152602001908152602001600020546110b69190614f9f565b90505b919050565b6000600b60008473ffffffffffffffffffffffffffffffffffffffff1673ffffffffffffffffffffffffffffffffffffffff16815260200190815260200160002060008373ffffffffffffffffffffffffffffffffffffffff1673ffffffffffffffffffffffffffffffffffffffff16815260200190815260200160002054905092915050565b7f435269160f073040285d1afaa3d9dbd1dbcaa4ff2aa674d3b9d65359d97fa41481565b6000806010600085815260200190815260200160002060008473ffffffffffffffffffffffffffffffffffffffff1673ffffffffffffffffffffffffffffffffffffffff16815260200190815260200160002054905060006111cb8483610b40565b11156111da57809150506111e0565b60009150505b92915050565b6000600760008373ffffffffffffffffffffffffffffffffffffffff1673ffffffffffffffffffffffffffffffffffffffff1681526020019081526020016000205411611268576040517f08c379a000000000000000000000000000000000000000000000000000000000815260040161125f90614c02565b60405180910390fd5b600061127483836118c6565b905060008114156112ba576040517f08c379a00000000000000000000000000000000000000000000000000000000081526004016112b190614c94565b60405180910390fd5b80600a60008573ffffffffffffffffffffffffffffffffffffffff1673ffffffffffffffffffffffffffffffffffffffff16815260200190815260200160002060008282546113099190614ce3565b9250508190555080600b60008573ffffffffffffffffffffffffffffffffffffffff1673ffffffffffffffffffffffffffffffffffffffff16815260200190815260200160002060008473ffffffffffffffffffffffffffffffffffffffff1673ffffffffffffffffffffffffffffffffffffffff168152602001908152602001600020600082825401925050819055506113a5838383612626565b8273ffffffffffffffffffffffffffffffffffffffff167f3be5b7a71e84ed12875d241991c70855ac5817d847039e17a9d895c1ceb0f18a83836040516113ed929190613c33565b60405180910390a2505050565b60608151835114611440576040517f08c379a0000000000000000000000000000000000000000000000000000000008152600401611437906150a5565b60405180910390fd5b6000835167ffffffffffffffff81111561145d5761145c613df9565b5b60405190808252806020026020018201604052801561148b5781602001602082028036833780820191505090505b50905060005b8451811015611508576114d88582815181106114b0576114af6150c5565b5b60200260200101518583815181106114cb576114ca6150c5565b5b6020026020010151610b40565b8282815181106114eb576114ea6150c5565b5b60200260200101818152505080611501906150f4565b9050611491565b508091505092915050565b60008061151f836118a9565b119050919050565b6115517f435269160f073040285d1afaa3d9dbd1dbcaa4ff2aa674d3b9d65359d97fa41433611779565b6115a65781600c546115639190614dc1565b3410156115a5576040517f08c379a000000000000000000000000000000000000000000000000000000000815260040161159c90615189565b60405180910390fd5b5b600f60009054906101000a900460ff1661163a576000600e600086815260200190815260200160002054905082811015611615576040517f08c379a000000000000000000000000000000000000000000000000000000000815260040161160c906151f5565b60405180910390fd5b82816116219190615215565b600e600087815260200190815260200160002081905550505b611655818484604051806020016040528060008152506126ac565b827fcc9c58b575eabd3f6a1ee653e91fcea3ff546867ffc3782a3bbca1f9b6dbb8df836040516116859190613d08565b60405180910390a2826010600086815260200190815260200160002060008373ffffffffffffffffffffffffffffffffffffffff1673ffffffffffffffffffffffffffffffffffffffff1681526020019081526020016000208190555050505050565b600f60009054906101000a900460ff1681565b600e6020528060005260406000206000915090505481565b60125481565b60006009828154811061172f5761172e6150c5565b5b9060005260206000200160009054906101000a900473ffffffffffffffffffffffffffffffffffffffff169050919050565b6000801b61176e81611c86565b81600c819055505050565b60006003600084815260200190815260200160002060000160008373ffffffffffffffffffffffffffffffffffffffff1673ffffffffffffffffffffffffffffffffffffffff16815260200190815260200160002060009054906101000a900460ff16905092915050565b6000600860008373ffffffffffffffffffffffffffffffffffffffff1673ffffffffffffffffffffffffffffffffffffffff168152602001908152602001600020549050919050565b601160009054906101000a900473ffffffffffffffffffffffffffffffffffffffff1681565b600c5481565b6000801b81565b61187261186b610b38565b838361285d565b5050565b600080611881611aa3565b4761188c9190614ce3565b90506118a1838261189c866117e4565b6129ca565b915050919050565b600060046000838152602001908152602001600020549050919050565b6000806118d284611a5a565b8473ffffffffffffffffffffffffffffffffffffffff166370a08231306040518263ffffffff1660e01b815260040161190b9190614823565b60206040518083038186803b15801561192357600080fd5b505afa158015611937573d6000803e3d6000fd5b505050506040513d601f19601f8201168201806040525081019061195b919061525e565b6119659190614ce3565b905061197b838261197687876110be565b6129ca565b91505092915050565b6000600760008373ffffffffffffffffffffffffffffffffffffffff1673ffffffffffffffffffffffffffffffffffffffff168152602001908152602001600020549050919050565b6000806010600085815260200190815260200160002060008473ffffffffffffffffffffffffffffffffffffffff1673ffffffffffffffffffffffffffffffffffffffff1681526020019081526020016000205490506000611a2f8483610b40565b1191505092915050565b611a4282610e95565b611a4b81611c86565b611a558383612544565b505050565b6000600a60008373ffffffffffffffffffffffffffffffffffffffff1673ffffffffffffffffffffffffffffffffffffffff168152602001908152602001600020549050919050565b6000600654905090565b6000600160008473ffffffffffffffffffffffffffffffffffffffff1673ffffffffffffffffffffffffffffffffffffffff16815260200190815260200160002060008373ffffffffffffffffffffffffffffffffffffffff1673ffffffffffffffffffffffffffffffffffffffff16815260200190815260200160002060009054906101000a900460ff16905092915050565b6000801b611b4e81611c86565b81600e600085815260200190815260200160002081905550505050565b611b73610b38565b73ffffffffffffffffffffffffffffffffffffffff168573ffffffffffffffffffffffffffffffffffffffff161480611bb95750611bb885611bb3610b38565b611aad565b5b611bf8576040517f08c379a0000000000000000000000000000000000000000000000000000000008152600401611bef90614eed565b60405180910390fd5b611c058585858585612a38565b5050505050565b60007f7965db0b000000000000000000000000000000000000000000000000000000007bffffffffffffffffffffffffffffffffffffffffffffffffffffffff1916827bffffffffffffffffffffffffffffffffffffffffffffffffffffffff19161480611c7f5750611c7e82612cd4565b5b9050919050565b611c9781611c92610b38565b612db6565b50565b8060029080519060200190611cb0929190613b36565b5050565b606060028054611cc3906152ba565b80601f0160208091040260200160405190810160405280929190818152602001828054611cef906152ba565b8015611d3c5780601f10611d1157610100808354040283529160200191611d3c565b820191906000526020600020905b815481529060010190602001808311611d1f57829003601f168201915b50505050509050919050565b606060006001611d5784612e3b565b01905060008167ffffffffffffffff811115611d7657611d75613df9565b5b6040519080825280601f01601f191660200182016040528015611da85781602001600182028036833780820191505090505b509050600082602001820190505b600115611e15578080600190039150507f3031323334353637383961626364656600000000000000000000000000000000600a86061a8153600a8581611dff57611dfe614e1b565b5b0494506000851415611e1057611e15565b611db6565b819350505050919050565b80471015611e63576040517f08c379a0000000000000000000000000000000000000000000000000000000008152600401611e5a90615338565b60405180910390fd5b60008273ffffffffffffffffffffffffffffffffffffffff1682604051611e8990615389565b60006040518083038185875af1925050503d8060008114611ec6576040519150601f19603f3d011682016040523d82523d6000602084013e611ecb565b606091505b5050905080611f0f576040517f08c379a0000000000000000000000000000000000000000000000000000000008152600401611f0690615410565b60405180910390fd5b505050565b600073ffffffffffffffffffffffffffffffffffffffff168473ffffffffffffffffffffffffffffffffffffffff161415611f84576040517f08c379a0000000000000000000000000000000000000000000000000000000008152600401611f7b906154a2565b60405180910390fd5b8151835114611fc8576040517f08c379a0000000000000000000000000000000000000000000000000000000008152600401611fbf90615534565b60405180910390fd5b6000611fd2610b38565b9050611fe381600087878787612f8e565b60005b845181101561209c57838181518110612002576120016150c5565b5b60200260200101516000808784815181106120205761201f6150c5565b5b6020026020010151815260200190815260200160002060008873ffffffffffffffffffffffffffffffffffffffff1673ffffffffffffffffffffffffffffffffffffffff16815260200190815260200160002060008282546120829190614ce3565b925050819055508080612094906150f4565b915050611fe6565b508473ffffffffffffffffffffffffffffffffffffffff16600073ffffffffffffffffffffffffffffffffffffffff168273ffffffffffffffffffffffffffffffffffffffff167f4a39dc06d4c0dbc64b70af90fd698a233a518aa5d07e595d983b8c0526c8f7fb8787604051612114929190615554565b60405180910390a461212b81600087878787612fa4565b61213a81600087878787612fac565b5050505050565b8151835114612185576040517f08c379a000000000000000000000000000000000000000000000000000000000815260040161217c90615534565b60405180910390fd5b600073ffffffffffffffffffffffffffffffffffffffff168473ffffffffffffffffffffffffffffffffffffffff1614156121f5576040517f08c379a00000000000000000000000000000000000000000000000000000000081526004016121ec906155fd565b60405180910390fd5b60006121ff610b38565b905061220f818787878787612f8e565b60005b84518110156123c05760008582815181106122305761222f6150c5565b5b60200260200101519050600085838151811061224f5761224e6150c5565b5b60200260200101519050600080600084815260200190815260200160002060008b73ffffffffffffffffffffffffffffffffffffffff1673ffffffffffffffffffffffffffffffffffffffff168152602001908152602001600020549050818110156122f0576040517f08c379a00000000000000000000000000000000000000000000000000000000081526004016122e79061568f565b60405180910390fd5b81810360008085815260200190815260200160002060008c73ffffffffffffffffffffffffffffffffffffffff1673ffffffffffffffffffffffffffffffffffffffff168152602001908152602001600020819055508160008085815260200190815260200160002060008b73ffffffffffffffffffffffffffffffffffffffff1673ffffffffffffffffffffffffffffffffffffffff16815260200190815260200160002060008282546123a59190614ce3565b92505081905550505050806123b9906150f4565b9050612212565b508473ffffffffffffffffffffffffffffffffffffffff168673ffffffffffffffffffffffffffffffffffffffff168273ffffffffffffffffffffffffffffffffffffffff167f4a39dc06d4c0dbc64b70af90fd698a233a518aa5d07e595d983b8c0526c8f7fb8787604051612437929190615554565b60405180910390a461244d818787878787612fa4565b61245b818787878787612fac565b505050505050565b61246d8282611779565b6125405760016003600084815260200190815260200160002060000160008373ffffffffffffffffffffffffffffffffffffffff1673ffffffffffffffffffffffffffffffffffffffff16815260200190815260200160002060006101000a81548160ff0219169083151502179055506124e5610b38565b73ffffffffffffffffffffffffffffffffffffffff168173ffffffffffffffffffffffffffffffffffffffff16837f2f8788117e7eff1d82e926ec794901d17c78024a50270940304540a733656f0d60405160405180910390a45b5050565b61254e8282611779565b156126225760006003600084815260200190815260200160002060000160008373ffffffffffffffffffffffffffffffffffffffff1673ffffffffffffffffffffffffffffffffffffffff16815260200190815260200160002060006101000a81548160ff0219169083151502179055506125c7610b38565b73ffffffffffffffffffffffffffffffffffffffff168173ffffffffffffffffffffffffffffffffffffffff16837ff6391f5c32d9c69d2a47ea670b442974b53935d1edc7fd64eb21e047a839171b60405160405180910390a45b5050565b6126a78363a9059cbb60e01b8484604051602401612645929190613c33565b604051602081830303815290604052907bffffffffffffffffffffffffffffffffffffffffffffffffffffffff19166020820180517bffffffffffffffffffffffffffffffffffffffffffffffffffffffff8381831617835250505050613193565b505050565b600073ffffffffffffffffffffffffffffffffffffffff168473ffffffffffffffffffffffffffffffffffffffff16141561271c576040517f08c379a0000000000000000000000000000000000000000000000000000000008152600401612713906154a2565b60405180910390fd5b6000612726610b38565b905060006127338561325a565b905060006127408561325a565b905061275183600089858589612f8e565b8460008088815260200190815260200160002060008973ffffffffffffffffffffffffffffffffffffffff1673ffffffffffffffffffffffffffffffffffffffff16815260200190815260200160002060008282546127b09190614ce3565b925050819055508673ffffffffffffffffffffffffffffffffffffffff16600073ffffffffffffffffffffffffffffffffffffffff168473ffffffffffffffffffffffffffffffffffffffff167fc3d58168c5ae7397731d063d5bbf3d657854427343f4c083240f7aacaa2d0f62898960405161282e9291906156af565b60405180910390a461284583600089858589612fa4565b612854836000898989896132d4565b50505050505050565b8173ffffffffffffffffffffffffffffffffffffffff168373ffffffffffffffffffffffffffffffffffffffff1614156128cc576040517f08c379a00000000000000000000000000000000000000000000000000000000081526004016128c39061574a565b60405180910390fd5b80600160008573ffffffffffffffffffffffffffffffffffffffff1673ffffffffffffffffffffffffffffffffffffffff16815260200190815260200160002060008473ffffffffffffffffffffffffffffffffffffffff1673ffffffffffffffffffffffffffffffffffffffff16815260200190815260200160002060006101000a81548160ff0219169083151502179055508173ffffffffffffffffffffffffffffffffffffffff168373ffffffffffffffffffffffffffffffffffffffff167f17307eab39ab6107e8899845ad3d59bd9653f200f220920489ca2b5937696c31836040516129bd9190613dc3565b60405180910390a3505050565b600081600554600760008773ffffffffffffffffffffffffffffffffffffffff1673ffffffffffffffffffffffffffffffffffffffff1681526020019081526020016000205485612a1b9190614dc1565b612a259190614e4a565b612a2f9190615215565b90509392505050565b600073ffffffffffffffffffffffffffffffffffffffff168473ffffffffffffffffffffffffffffffffffffffff161415612aa8576040517f08c379a0000000000000000000000000000000000000000000000000000000008152600401612a9f906155fd565b60405180910390fd5b6000612ab2610b38565b90506000612abf8561325a565b90506000612acc8561325a565b9050612adc838989858589612f8e565b600080600088815260200190815260200160002060008a73ffffffffffffffffffffffffffffffffffffffff1673ffffffffffffffffffffffffffffffffffffffff16815260200190815260200160002054905085811015612b73576040517f08c379a0000000000000000000000000000000000000000000000000000000008152600401612b6a9061568f565b60405180910390fd5b85810360008089815260200190815260200160002060008b73ffffffffffffffffffffffffffffffffffffffff1673ffffffffffffffffffffffffffffffffffffffff168152602001908152602001600020819055508560008089815260200190815260200160002060008a73ffffffffffffffffffffffffffffffffffffffff1673ffffffffffffffffffffffffffffffffffffffff1681526020019081526020016000206000828254612c289190614ce3565b925050819055508773ffffffffffffffffffffffffffffffffffffffff168973ffffffffffffffffffffffffffffffffffffffff168573ffffffffffffffffffffffffffffffffffffffff167fc3d58168c5ae7397731d063d5bbf3d657854427343f4c083240f7aacaa2d0f628a8a604051612ca59291906156af565b60405180910390a4612cbb848a8a86868a612fa4565b612cc9848a8a8a8a8a6132d4565b505050505050505050565b60007fd9b67a26000000000000000000000000000000000000000000000000000000007bffffffffffffffffffffffffffffffffffffffffffffffffffffffff1916827bffffffffffffffffffffffffffffffffffffffffffffffffffffffff19161480612d9f57507f0e89341c000000000000000000000000000000000000000000000000000000007bffffffffffffffffffffffffffffffffffffffffffffffffffffffff1916827bffffffffffffffffffffffffffffffffffffffffffffffffffffffff1916145b80612daf5750612dae826134bb565b5b9050919050565b612dc08282611779565b612e3757612dcd81613525565b612ddb8360001c6020613552565b604051602001612dec929190615802565b6040516020818303038152906040526040517f08c379a0000000000000000000000000000000000000000000000000000000008152600401612e2e9190614022565b60405180910390fd5b5050565b600080600090507a184f03e93ff9f4daa797ed6e38ed64bf6a1f0100000000000000008310612e99577a184f03e93ff9f4daa797ed6e38ed64bf6a1f0100000000000000008381612e8f57612e8e614e1b565b5b0492506040810190505b6d04ee2d6d415b85acef81000000008310612ed6576d04ee2d6d415b85acef81000000008381612ecc57612ecb614e1b565b5b0492506020810190505b662386f26fc100008310612f0557662386f26fc100008381612efb57612efa614e1b565b5b0492506010810190505b6305f5e1008310612f2e576305f5e1008381612f2457612f23614e1b565b5b0492506008810190505b6127108310612f53576127108381612f4957612f48614e1b565b5b0492506004810190505b60648310612f765760648381612f6c57612f6b614e1b565b5b0492506002810190505b600a8310612f85576001810190505b80915050919050565b612f9c86868686868661378e565b505050505050565b505050505050565b612fcb8473ffffffffffffffffffffffffffffffffffffffff16613960565b1561318b578373ffffffffffffffffffffffffffffffffffffffff1663bc197c8187878686866040518663ffffffff1660e01b8152600401613011959493929190615891565b602060405180830381600087803b15801561302b57600080fd5b505af192505050801561305c57506040513d601f19601f82011682018060405250810190613059919061590e565b60015b61310257613068615948565b806308c379a014156130c5575061307d61596a565b8061308857506130c7565b806040517f08c379a00000000000000000000000000000000000000000000000000000000081526004016130bc9190614022565b60405180910390fd5b505b6040517f08c379a00000000000000000000000000000000000000000000000000000000081526004016130f990615a72565b60405180910390fd5b63bc197c8160e01b7bffffffffffffffffffffffffffffffffffffffffffffffffffffffff1916817bffffffffffffffffffffffffffffffffffffffffffffffffffffffff191614613189576040517f08c379a000000000000000000000000000000000000000000000000000000000815260040161318090615b04565b60405180910390fd5b505b505050505050565b60006131f5826040518060400160405280602081526020017f5361666545524332303a206c6f772d6c6576656c2063616c6c206661696c65648152508573ffffffffffffffffffffffffffffffffffffffff166139839092919063ffffffff16565b905060008151111561325557808060200190518101906132159190615b39565b613254576040517f08c379a000000000000000000000000000000000000000000000000000000000815260040161324b90615bd8565b60405180910390fd5b5b505050565b60606000600167ffffffffffffffff81111561327957613278613df9565b5b6040519080825280602002602001820160405280156132a75781602001602082028036833780820191505090505b50905082816000815181106132bf576132be6150c5565b5b60200260200101818152505080915050919050565b6132f38473ffffffffffffffffffffffffffffffffffffffff16613960565b156134b3578373ffffffffffffffffffffffffffffffffffffffff1663f23a6e6187878686866040518663ffffffff1660e01b8152600401613339959493929190615bf8565b602060405180830381600087803b15801561335357600080fd5b505af192505050801561338457506040513d601f19601f82011682018060405250810190613381919061590e565b60015b61342a57613390615948565b806308c379a014156133ed57506133a561596a565b806133b057506133ef565b806040517f08c379a00000000000000000000000000000000000000000000000000000000081526004016133e49190614022565b60405180910390fd5b505b6040517f08c379a000000000000000000000000000000000000000000000000000000000815260040161342190615a72565b60405180910390fd5b63f23a6e6160e01b7bffffffffffffffffffffffffffffffffffffffffffffffffffffffff1916817bffffffffffffffffffffffffffffffffffffffffffffffffffffffff1916146134b1576040517f08c379a00000000000000000000000000000000000000000000000000000000081526004016134a890615b04565b60405180910390fd5b505b505050505050565b60007f01ffc9a7000000000000000000000000000000000000000000000000000000007bffffffffffffffffffffffffffffffffffffffffffffffffffffffff1916827bffffffffffffffffffffffffffffffffffffffffffffffffffffffff1916149050919050565b606061354b8273ffffffffffffffffffffffffffffffffffffffff16601460ff16613552565b9050919050565b6060600060028360026135659190614dc1565b61356f9190614ce3565b67ffffffffffffffff81111561358857613587613df9565b5b6040519080825280601f01601f1916602001820160405280156135ba5781602001600182028036833780820191505090505b5090507f3000000000000000000000000000000000000000000000000000000000000000816000815181106135f2576135f16150c5565b5b60200101907effffffffffffffffffffffffffffffffffffffffffffffffffffffffffffff1916908160001a9053507f780000000000000000000000000000000000000000000000000000000000000081600181518110613656576136556150c5565b5b60200101907effffffffffffffffffffffffffffffffffffffffffffffffffffffffffffff1916908160001a905350600060018460026136969190614dc1565b6136a09190614ce3565b90505b6001811115613740577f3031323334353637383961626364656600000000000000000000000000000000600f8616601081106136e2576136e16150c5565b5b1a60f81b8282815181106136f9576136f86150c5565b5b60200101907effffffffffffffffffffffffffffffffffffffffffffffffffffffffffffff1916908160001a905350600485901c94508061373990615c52565b90506136a3565b5060008414613784576040517f08c379a000000000000000000000000000000000000000000000000000000000815260040161377b90615cc8565b60405180910390fd5b8091505092915050565b61379c86868686868661399b565b600073ffffffffffffffffffffffffffffffffffffffff168573ffffffffffffffffffffffffffffffffffffffff16141561384e5760005b835181101561384c578281815181106137f0576137ef6150c5565b5b60200260200101516004600086848151811061380f5761380e6150c5565b5b6020026020010151815260200190815260200160002060008282546138349190614ce3565b9250508190555080613845906150f4565b90506137d4565b505b600073ffffffffffffffffffffffffffffffffffffffff168473ffffffffffffffffffffffffffffffffffffffff1614156139585760005b83518110156139565760008482815181106138a4576138a36150c5565b5b6020026020010151905060008483815181106138c3576138c26150c5565b5b6020026020010151905060006004600084815260200190815260200160002054905081811015613928576040517f08c379a000000000000000000000000000000000000000000000000000000000815260040161391f90615d5a565b60405180910390fd5b81810360046000858152602001908152602001600020819055505050508061394f906150f4565b9050613886565b505b505050505050565b6000808273ffffffffffffffffffffffffffffffffffffffff163b119050919050565b606061399284846000856139a3565b90509392505050565b505050505050565b6060824710156139e8576040517f08c379a00000000000000000000000000000000000000000000000000000000081526004016139df90615dec565b60405180910390fd5b6000808673ffffffffffffffffffffffffffffffffffffffff168587604051613a119190615e3d565b60006040518083038185875af1925050503d8060008114613a4e576040519150601f19603f3d011682016040523d82523d6000602084013e613a53565b606091505b5091509150613a6487838387613a70565b92505050949350505050565b60608315613ad357600083511415613acb57613a8b85613960565b613aca576040517f08c379a0000000000000000000000000000000000000000000000000000000008152600401613ac190615ea0565b60405180910390fd5b5b829050613ade565b613add8383613ae6565b5b949350505050565b600082511115613af95781518083602001fd5b806040517f08c379a0000000000000000000000000000000000000000000000000000000008152600401613b2d9190614022565b60405180910390fd5b828054613b42906152ba565b90600052602060002090601f016020900481019282613b645760008555613bab565b82601f10613b7d57805160ff1916838001178555613bab565b82800160010185558215613bab579182015b82811115613baa578251825591602001919060010190613b8f565b5b509050613bb89190613bbc565b5090565b5b80821115613bd5576000816000905550600101613bbd565b5090565b600073ffffffffffffffffffffffffffffffffffffffff82169050919050565b6000613c0482613bd9565b9050919050565b613c1481613bf9565b82525050565b6000819050919050565b613c2d81613c1a565b82525050565b6000604082019050613c486000830185613c0b565b613c556020830184613c24565b9392505050565b6000604051905090565b600080fd5b600080fd5b613c7981613bf9565b8114613c8457600080fd5b50565b600081359050613c9681613c70565b92915050565b613ca581613c1a565b8114613cb057600080fd5b50565b600081359050613cc281613c9c565b92915050565b60008060408385031215613cdf57613cde613c66565b5b6000613ced85828601613c87565b9250506020613cfe85828601613cb3565b9150509250929050565b6000602082019050613d1d6000830184613c24565b92915050565b60007fffffffff0000000000000000000000000000000000000000000000000000000082169050919050565b613d5881613d23565b8114613d6357600080fd5b50565b600081359050613d7581613d4f565b92915050565b600060208284031215613d9157613d90613c66565b5b6000613d9f84828501613d66565b91505092915050565b60008115159050919050565b613dbd81613da8565b82525050565b6000602082019050613dd86000830184613db4565b92915050565b600080fd5b600080fd5b6000601f19601f8301169050919050565b7f4e487b7100000000000000000000000000000000000000000000000000000000600052604160045260246000fd5b613e3182613de8565b810181811067ffffffffffffffff82111715613e5057613e4f613df9565b5b80604052505050565b6000613e63613c5c565b9050613e6f8282613e28565b919050565b600067ffffffffffffffff821115613e8f57613e8e613df9565b5b613e9882613de8565b9050602081019050919050565b82818337600083830152505050565b6000613ec7613ec284613e74565b613e59565b905082815260208101848484011115613ee357613ee2613de3565b5b613eee848285613ea5565b509392505050565b600082601f830112613f0b57613f0a613dde565b5b8135613f1b848260208601613eb4565b91505092915050565b600060208284031215613f3a57613f39613c66565b5b600082013567ffffffffffffffff811115613f5857613f57613c6b565b5b613f6484828501613ef6565b91505092915050565b600060208284031215613f8357613f82613c66565b5b6000613f9184828501613cb3565b91505092915050565b600081519050919050565b600082825260208201905092915050565b60005b83811015613fd4578082015181840152602081019050613fb9565b83811115613fe3576000848401525b50505050565b6000613ff482613f9a565b613ffe8185613fa5565b935061400e818560208601613fb6565b61401781613de8565b840191505092915050565b6000602082019050818103600083015261403c8184613fe9565b905092915050565b600061404f82613bd9565b9050919050565b61405f81614044565b811461406a57600080fd5b50565b60008135905061407c81614056565b92915050565b60006020828403121561409857614097613c66565b5b60006140a68482850161406d565b91505092915050565b600067ffffffffffffffff8211156140ca576140c9613df9565b5b602082029050602081019050919050565b600080fd5b60006140f36140ee846140af565b613e59565b90508083825260208201905060208402830185811115614116576141156140db565b5b835b8181101561413f578061412b8882613cb3565b845260208401935050602081019050614118565b5050509392505050565b600082601f83011261415e5761415d613dde565b5b813561416e8482602086016140e0565b91505092915050565b600067ffffffffffffffff82111561419257614191613df9565b5b61419b82613de8565b9050602081019050919050565b60006141bb6141b684614177565b613e59565b9050828152602081018484840111156141d7576141d6613de3565b5b6141e2848285613ea5565b509392505050565b600082601f8301126141ff576141fe613dde565b5b813561420f8482602086016141a8565b91505092915050565b6000806000806080858703121561423257614231613c66565b5b600061424087828801613c87565b945050602085013567ffffffffffffffff81111561426157614260613c6b565b5b61426d87828801614149565b935050604085013567ffffffffffffffff81111561428e5761428d613c6b565b5b61429a87828801614149565b925050606085013567ffffffffffffffff8111156142bb576142ba613c6b565b5b6142c7878288016141ea565b91505092959194509250565b6000819050919050565b6142e6816142d3565b81146142f157600080fd5b50565b600081359050614303816142dd565b92915050565b60006020828403121561431f5761431e613c66565b5b600061432d848285016142f4565b91505092915050565b61433f816142d3565b82525050565b600060208201905061435a6000830184614336565b92915050565b6000806040838503121561437757614376613c66565b5b600061438585828601613cb3565b925050602061439685828601613cb3565b9150509250929050565b600080600080600060a086880312156143bc576143bb613c66565b5b60006143ca88828901613c87565b95505060206143db88828901613c87565b945050604086013567ffffffffffffffff8111156143fc576143fb613c6b565b5b61440888828901614149565b935050606086013567ffffffffffffffff81111561442957614428613c6b565b5b61443588828901614149565b925050608086013567ffffffffffffffff81111561445657614455613c6b565b5b614462888289016141ea565b9150509295509295909350565b6000806040838503121561448657614485613c66565b5b6000614494858286016142f4565b92505060206144a585828601613c87565b9150509250929050565b6000819050919050565b6144c2816144af565b82525050565b60006020820190506144dd60008301846144b9565b92915050565b60006144ee82613bf9565b9050919050565b6144fe816144e3565b811461450957600080fd5b50565b60008135905061451b816144f5565b92915050565b6000806040838503121561453857614537613c66565b5b60006145468582860161450c565b925050602061455785828601613c87565b9150509250929050565b6000806040838503121561457857614577613c66565b5b600061458685828601613cb3565b925050602061459785828601613c87565b9150509250929050565b600067ffffffffffffffff8211156145bc576145bb613df9565b5b602082029050602081019050919050565b60006145e06145db846145a1565b613e59565b90508083825260208201905060208402830185811115614603576146026140db565b5b835b8181101561462c57806146188882613c87565b845260208401935050602081019050614605565b5050509392505050565b600082601f83011261464b5761464a613dde565b5b813561465b8482602086016145cd565b91505092915050565b6000806040838503121561467b5761467a613c66565b5b600083013567ffffffffffffffff81111561469957614698613c6b565b5b6146a585828601614636565b925050602083013567ffffffffffffffff8111156146c6576146c5613c6b565b5b6146d285828601614149565b9150509250929050565b600081519050919050565b600082825260208201905092915050565b6000819050602082019050919050565b61471181613c1a565b82525050565b60006147238383614708565b60208301905092915050565b6000602082019050919050565b6000614747826146dc565b61475181856146e7565b935061475c836146f8565b8060005b8381101561478d5781516147748882614717565b975061477f8361472f565b925050600181019050614760565b5085935050505092915050565b600060208201905081810360008301526147b4818461473c565b905092915050565b600080600080608085870312156147d6576147d5613c66565b5b60006147e487828801613cb3565b94505060206147f587828801613cb3565b935050604061480687828801613cb3565b925050606061481787828801613c87565b91505092959194509250565b60006020820190506148386000830184613c0b565b92915050565b60006020828403121561485457614853613c66565b5b600061486284828501613c87565b91505092915050565b61487481613da8565b811461487f57600080fd5b50565b6000813590506148918161486b565b92915050565b600080604083850312156148ae576148ad613c66565b5b60006148bc85828601613c87565b92505060206148cd85828601614882565b9150509250929050565b6000602082840312156148ed576148ec613c66565b5b60006148fb8482850161450c565b91505092915050565b6000806040838503121561491b5761491a613c66565b5b600061492985828601613c87565b925050602061493a85828601613c87565b9150509250929050565b600080600080600060a086880312156149605761495f613c66565b5b600061496e88828901613c87565b955050602061497f88828901613c87565b945050604061499088828901613cb3565b93505060606149a188828901613cb3565b925050608086013567ffffffffffffffff8111156149c2576149c1613c6b565b5b6149ce888289016141ea565b9150509295509295909350565b7f455243313135353a2061646472657373207a65726f206973206e6f742061207660008201527f616c6964206f776e657200000000000000000000000000000000000000000000602082015250565b6000614a37602a83613fa5565b9150614a42826149db565b604082019050919050565b60006020820190508181036000830152614a6681614a2a565b9050919050565b7f5552493a20546f6b656e20646f6573206e6f742065786973742e000000000000600082015250565b6000614aa3601a83613fa5565b9150614aae82614a6d565b602082019050919050565b60006020820190508181036000830152614ad281614a96565b9050919050565b600081905092915050565b6000614aef82613f9a565b614af98185614ad9565b9350614b09818560208601613fb6565b80840191505092915050565b7f2e6a736f6e000000000000000000000000000000000000000000000000000000600082015250565b6000614b4b600583614ad9565b9150614b5682614b15565b600582019050919050565b6000614b6d8285614ae4565b9150614b798284614ae4565b9150614b8482614b3e565b91508190509392505050565b7f5061796d656e7453706c69747465723a206163636f756e7420686173206e6f2060008201527f7368617265730000000000000000000000000000000000000000000000000000602082015250565b6000614bec602683613fa5565b9150614bf782614b90565b604082019050919050565b60006020820190508181036000830152614c1b81614bdf565b9050919050565b7f5061796d656e7453706c69747465723a206163636f756e74206973206e6f742060008201527f647565207061796d656e74000000000000000000000000000000000000000000602082015250565b6000614c7e602b83613fa5565b9150614c8982614c22565b604082019050919050565b60006020820190508181036000830152614cad81614c71565b9050919050565b7f4e487b7100000000000000000000000000000000000000000000000000000000600052601160045260246000fd5b6000614cee82613c1a565b9150614cf983613c1a565b9250827fffffffffffffffffffffffffffffffffffffffffffffffffffffffffffffffff03821115614d2e57614d2d614cb4565b5b828201905092915050565b6000819050919050565b6000614d5e614d59614d5484613bd9565b614d39565b613bd9565b9050919050565b6000614d7082614d43565b9050919050565b6000614d8282614d65565b9050919050565b614d9281614d77565b82525050565b6000604082019050614dad6000830185614d89565b614dba6020830184613c24565b9392505050565b6000614dcc82613c1a565b9150614dd783613c1a565b9250817fffffffffffffffffffffffffffffffffffffffffffffffffffffffffffffffff0483118215151615614e1057614e0f614cb4565b5b828202905092915050565b7f4e487b7100000000000000000000000000000000000000000000000000000000600052601260045260246000fd5b6000614e5582613c1a565b9150614e6083613c1a565b925082614e7057614e6f614e1b565b5b828204905092915050565b7f455243313135353a2063616c6c6572206973206e6f7420746f6b656e206f776e60008201527f6572206f7220617070726f766564000000000000000000000000000000000000602082015250565b6000614ed7602e83613fa5565b9150614ee282614e7b565b604082019050919050565b60006020820190508181036000830152614f0681614eca565b9050919050565b7f416363657373436f6e74726f6c3a2063616e206f6e6c792072656e6f756e636560008201527f20726f6c657320666f722073656c660000000000000000000000000000000000602082015250565b6000614f69602f83613fa5565b9150614f7482614f0d565b604082019050919050565b60006020820190508181036000830152614f9881614f5c565b9050919050565b6000614faa826144af565b9150614fb5836144af565b9250827f800000000000000000000000000000000000000000000000000000000000000001821260008412151615614ff057614fef614cb4565b5b827f7fffffffffffffffffffffffffffffffffffffffffffffffffffffffffffffff01821360008412161561502857615027614cb4565b5b828203905092915050565b7f455243313135353a206163636f756e747320616e6420696473206c656e67746860008201527f206d69736d617463680000000000000000000000000000000000000000000000602082015250565b600061508f602983613fa5565b915061509a82615033565b604082019050919050565b600060208201905081810360008301526150be81615082565b9050919050565b7f4e487b7100000000000000000000000000000000000000000000000000000000600052603260045260246000fd5b60006150ff82613c1a565b91507fffffffffffffffffffffffffffffffffffffffffffffffffffffffffffffffff82141561513257615131614cb4565b5b600182019050919050565b7f4e6f7420456e6f7567682045544820746f20427579204e465400000000000000600082015250565b6000615173601983613fa5565b915061517e8261513d565b602082019050919050565b600060208201905081810360008301526151a281615166565b9050919050565b7f4e4654204f7574206f662053746f636b00000000000000000000000000000000600082015250565b60006151df601083613fa5565b91506151ea826151a9565b602082019050919050565b6000602082019050818103600083015261520e816151d2565b9050919050565b600061522082613c1a565b915061522b83613c1a565b92508282101561523e5761523d614cb4565b5b828203905092915050565b60008151905061525881613c9c565b92915050565b60006020828403121561527457615273613c66565b5b600061528284828501615249565b91505092915050565b7f4e487b7100000000000000000000000000000000000000000000000000000000600052602260045260246000fd5b600060028204905060018216806152d257607f821691505b602082108114156152e6576152e561528b565b5b50919050565b7f416464726573733a20696e73756666696369656e742062616c616e6365000000600082015250565b6000615322601d83613fa5565b915061532d826152ec565b602082019050919050565b6000602082019050818103600083015261535181615315565b9050919050565b600081905092915050565b50565b6000615373600083615358565b915061537e82615363565b600082019050919050565b600061539482615366565b9150819050919050565b7f416464726573733a20756e61626c6520746f2073656e642076616c75652c207260008201527f6563697069656e74206d61792068617665207265766572746564000000000000602082015250565b60006153fa603a83613fa5565b91506154058261539e565b604082019050919050565b60006020820190508181036000830152615429816153ed565b9050919050565b7f455243313135353a206d696e7420746f20746865207a65726f2061646472657360008201527f7300000000000000000000000000000000000000000000000000000000000000602082015250565b600061548c602183613fa5565b915061549782615430565b604082019050919050565b600060208201905081810360008301526154bb8161547f565b9050919050565b7f455243313135353a2069647320616e6420616d6f756e7473206c656e6774682060008201527f6d69736d61746368000000000000000000000000000000000000000000000000602082015250565b600061551e602883613fa5565b9150615529826154c2565b604082019050919050565b6000602082019050818103600083015261554d81615511565b9050919050565b6000604082019050818103600083015261556e818561473c565b90508181036020830152615582818461473c565b90509392505050565b7f455243313135353a207472616e7366657220746f20746865207a65726f20616460008201527f6472657373000000000000000000000000000000000000000000000000000000602082015250565b60006155e7602583613fa5565b91506155f28261558b565b604082019050919050565b60006020820190508181036000830152615616816155da565b9050919050565b7f455243313135353a20696e73756666696369656e742062616c616e636520666f60008201527f72207472616e7366657200000000000000000000000000000000000000000000602082015250565b6000615679602a83613fa5565b91506156848261561d565b604082019050919050565b600060208201905081810360008301526156a88161566c565b9050919050565b60006040820190506156c46000830185613c24565b6156d16020830184613c24565b9392505050565b7f455243313135353a2073657474696e6720617070726f76616c2073746174757360008201527f20666f722073656c660000000000000000000000000000000000000000000000602082015250565b6000615734602983613fa5565b915061573f826156d8565b604082019050919050565b6000602082019050818103600083015261576381615727565b9050919050565b7f416363657373436f6e74726f6c3a206163636f756e7420000000000000000000600082015250565b60006157a0601783614ad9565b91506157ab8261576a565b601782019050919050565b7f206973206d697373696e6720726f6c6520000000000000000000000000000000600082015250565b60006157ec601183614ad9565b91506157f7826157b6565b601182019050919050565b600061580d82615793565b91506158198285614ae4565b9150615824826157df565b91506158308284614ae4565b91508190509392505050565b600081519050919050565b600082825260208201905092915050565b60006158638261583c565b61586d8185615847565b935061587d818560208601613fb6565b61588681613de8565b840191505092915050565b600060a0820190506158a66000830188613c0b565b6158b36020830187613c0b565b81810360408301526158c5818661473c565b905081810360608301526158d9818561473c565b905081810360808301526158ed8184615858565b90509695505050505050565b60008151905061590881613d4f565b92915050565b60006020828403121561592457615923613c66565b5b6000615932848285016158f9565b91505092915050565b60008160e01c9050919050565b600060033d11156159675760046000803e61596460005161593b565b90505b90565b600060443d101561597a576159fd565b615982613c5c565b60043d036004823e80513d602482011167ffffffffffffffff821117156159aa5750506159fd565b808201805167ffffffffffffffff8111156159c857505050506159fd565b80602083010160043d0385018111156159e55750505050506159fd565b6159f482602001850186613e28565b82955050505050505b90565b7f455243313135353a207472616e7366657220746f206e6f6e2d4552433131353560008201527f526563656976657220696d706c656d656e746572000000000000000000000000602082015250565b6000615a5c603483613fa5565b9150615a6782615a00565b604082019050919050565b60006020820190508181036000830152615a8b81615a4f565b9050919050565b7f455243313135353a204552433131353552656365697665722072656a6563746560008201527f6420746f6b656e73000000000000000000000000000000000000000000000000602082015250565b6000615aee602883613fa5565b9150615af982615a92565b604082019050919050565b60006020820190508181036000830152615b1d81615ae1565b9050919050565b600081519050615b338161486b565b92915050565b600060208284031215615b4f57615b4e613c66565b5b6000615b5d84828501615b24565b91505092915050565b7f5361666545524332303a204552433230206f7065726174696f6e20646964206e60008201527f6f74207375636365656400000000000000000000000000000000000000000000602082015250565b6000615bc2602a83613fa5565b9150615bcd82615b66565b604082019050919050565b60006020820190508181036000830152615bf181615bb5565b9050919050565b600060a082019050615c0d6000830188613c0b565b615c1a6020830187613c0b565b615c276040830186613c24565b615c346060830185613c24565b8181036080830152615c468184615858565b90509695505050505050565b6000615c5d82613c1a565b91506000821415615c7157615c70614cb4565b5b600182039050919050565b7f537472696e67733a20686578206c656e67746820696e73756666696369656e74600082015250565b6000615cb2602083613fa5565b9150615cbd82615c7c565b602082019050919050565b60006020820190508181036000830152615ce181615ca5565b9050919050565b7f455243313135353a206275726e20616d6f756e74206578636565647320746f7460008201527f616c537570706c79000000000000000000000000000000000000000000000000602082015250565b6000615d44602883613fa5565b9150615d4f82615ce8565b604082019050919050565b60006020820190508181036000830152615d7381615d37565b9050919050565b7f416464726573733a20696e73756666696369656e742062616c616e636520666f60008201527f722063616c6c0000000000000000000000000000000000000000000000000000602082015250565b6000615dd6602683613fa5565b9150615de182615d7a565b604082019050919050565b60006020820190508181036000830152615e0581615dc9565b9050919050565b6000615e178261583c565b615e218185615358565b9350615e31818560208601613fb6565b80840191505092915050565b6000615e498284615e0c565b915081905092915050565b7f416464726573733a2063616c6c20746f206e6f6e2d636f6e7472616374000000600082015250565b6000615e8a601d83613fa5565b9150615e9582615e54565b602082019050919050565b60006020820190508181036000830152615eb981615e7d565b905091905056fea2646970667358221220c8165ac2fc64530b5a6b7c664136ef19d1a4c2f070f43ecc91a8ba11855c4d6164736f6c63430008090033",
  "linkReferences": {},
  "deployedLinkReferences": {}
}